:400000000020002011000000A1060000A106000010B502F0CBFD00F04BFBC04610B5124C12232360182002F035FCFE2212020F4B1A600F4B0F4A1A60D02109010E4A116037
:400040000E4A1A6000230E4A136040210D4A116001310D4A11600D4A1360002002F0D8FD1123236010BDC04630001040000301400000014040FF00800403014041FF008096
:40008000280003400C010140040101400C02074010B572B6EE22134B1A604F23124A1360124A13603F22124B1A60C0225203114B1A60BF22104B1A600F23104A1360104AB3
:4000C000136013220F4B1A600F4A104B1A6020220F4B1A601E3A0F4B1A60FFF79FFF00F0CBFA10BD00030240000004401800044000010440080104401801044000020440E4
:4001000018020440000304402460000008030440180304401804044010B5064C2378002B07D1054B002B02D0044800E000BF0123237010BD180100200000000008320000A4
:40014000084B10B5002B03D00749084800E000BF07480368002B00D110BD064B002BFBD09847F9E7000000001C01002008320000900000200000000010B502F039FD02F09B
:4001800029FD044B1B68C01802F018FD0122024B1A7010BD940000203401002010B500F063FD0023054A1380054A0121494211805380044A1180538010BDC046BA010020BE
:4001C000C00100209C01002070B50022394B1A70002000F0E3FFC4B2002C28D0364B5B78002B24D0354B1A88354B1B889A4208D9D31A344A13802F4A117802230B43137015
:4002000002E09B1A2F4A13802C4B5A882C4B5B889A4203D9D31A2B4A53800CE09B1A294A5380244A117801230B43137003E0254B00221A805A80234B1B880A2B02D95B0043
:40024000204A13801F4B5B880A2B02D95B001D4A53801B4A1188194B198052885A80012000F09CFFC5B2022000F098FFC0B20022154B1A70104B9B78002B04D1002D02D029
:400280000132114B1A700C4BDB78002B07D1002805D00D4A117802230B43137004E00A4A137802218B431370034B5C709D70D87070BDC046B8010020340100209C010020E1
:4002C000C0010020A0010020A401002010B500F049FA054A55231370543BD3700221102000F0CEFA10BDC046A8010020274B1B88002B03D1264B1B78002B30D00022254B07
:400300005A70042304E00021224AD1540133DBB2082BF8D91F4B05229A701D4A12781A711D4A9178597112789A710022DA711B4A12781A720023012205E01649C95C8A1852
:4003400092B20133DBB20D2BF7D9110A114B9973D2B2DA7301225A700022114B1A710D4B5B78002B10D10E4B1B79002B06D00BE00021084AD1540133DBB200E00423082B83
:40038000F6D90122064B1A717047C046BA010020A4010020A8010020A0010020B80100203401002010B502F070FC040000F056FA830609D402F056FB00F0E4F902F0EEFAA3
:4003C00000F0E4F902F034FB200002F062FC10BD10B5002000F0E2FE00280AD1013000F0DDFE002807D1023000F0D8FE002804D104E0012002E0012000E0012010BDC0464D
:4004000000B583B000230193084B1B78012B02D1C820800000E0064801A902F037FB002802D1044B019A1A6003B000BDBC010020701700009400002010B50949062002F0BE
:4004400071F9FFF7DDFF02F0CDFB064B1B68C01802F0B4FB02F0D4FB062002F043F910BD7901000094000020F8B501226E4B1A7062B6FFF72BFF642002F08CF9FFF78EFE61
:40048000FFF7DAFF00260027012402E0042400E00424022C3ED002D8012C06D0BFE0032C51D0042C00D1ACE0B9E000F0E5FF0028EFD15D4B1B78012B21D1002E03D101F0B3
:4004C000CBFD013622E0012E04D1012001F0C4FD01361BE0022E0DD1022001F0BDFD032000F05CFE00280ED0FFF772FF00280CD101360BE0032001F0AFFD002606E0032027
:4005000001F0AAFD02E0002600E0002600F0DCFF0224BEE702F0B9FB050000F0ADFF002802D002F02DFA0AE03F4B1B78012B03D1002E03D1032402E0032400E001242800BF
:4005400002F0A7FBA5E7384B1B78012B45D1002000F0AEFB012000F0ABFB022000F0A8FBFFF736FF002807D1033000F017FE002802D0032000F09CFB002000F00FFE80B288
:400580002A4B1880012807D1002000F019FE284B1880000C588003E0254B00221A805A80FFF712FEFFF7A2FE00F0E8FD00280ED1013000F039FB0137952F00D866E71D4AD9
:4005C0001D4B1A600022184B1A70042461E7002000F02AFB002704245BE7032000F068FB032000F0DBFD002800D151E7C8229200114B1A6001220C4B1A700026002701247A
:4006000047E7FFF7CFFE0D4B1B78002B00D140E700220A4B1A70FFF7F3FE012439E7002002F07EF835E7C046BC010020BA010020C0010020701700009400002034010020BB
:400640000B4B1B68002803D080221206134301E05B005B08064A1360064B1B68002802D02022134301E020229343024A1360704780033A402800034010B53322054B1A6013
:40068000303A054B1A601D32044B1A600120FFF7D7FF10BD0021024030003040000E3F4010B502F073FD03680C2B00D1FEE7FEE770B50F4E0F4D13E029686B68AC680022D5
:4006C00002E001C901C30432A242FAD1E868002202E0002102C304328242FAD11035013E002EE9D102F058FDFFF7BEFEFEE7C046010000005836000010B500230AE0032BC7
:4007000003D89A000849505800E008489900084A88500133232BF2D9FFF7BAFC80229205044B1A6010BDC04600000000A10600000000002008ED00E010B5082001F0D2FF3F
:4007400010BDC04610B500F025F810BD10B5044A1368802109060B431360FFF7EDFF10BD0000094010B5064B1B78002B04D1FFF7E9FF0122024B1A70FFF7E8FF10BDC046DF
:400780003C01002010B500F093F810BD10B500F099F810BD10B5802252001B4B1A601B4A1B4B1A601B4B1C4A136000241B4A14601B491C4A11601C4A13601C4B1C60082083
:4007C00001F09AFF0321082001F0BEFF1849082001F0A8FF174B1C60174B1C605222FF32164B1A60164B1C60164B1C60164B1C60503AFF3A154B1A70154B1C70154B1C80EC
:40080000154B1C8010BDC0460000094000080040600009400701008000030940040309401000FE00100309400002094004020940D9080000C80E0940880E0940480F094008
:40084000080F0940C80F0940880F0940C8010020CC010020C6010020C401002010B5082001F04AFF054B1C78E4B21A781F218A431A70082001F036FF200010BDCC01002084
:4008800070B506000D00141E0BD0082001F034FF044B1C60044B1E80044B1D80082001F021FF70BDD0010020D4010020CA01002010B501F0A5FE0122014B1A6010BDC046B7
:4008C000880E094010B50022024B1A60FF2001F089FE10BD880E094070B5B44B1B68002B00D09847B24B1C88B24B1D68B24B1E680223FF331D4239D0B04A13685B005B080F
:400900001360AF4A137820218B431370117810230B43DBB21370AB4B1B68DB060CD4A44B1A88A94B1B889A420CD0A54A117808230B43DBB2137005E0A14A117802230B432D
:40094000DBB21370A14A1168A14B0B4013600023A04A13609B4A136002229F4B1A70974A1368802109060B4313601BE1F30602D500229A4B1A600A23334200D1A3E0984BF6
:400980001B685B0769D5974B1A68934B1B78012B04D0002B22D0022B16D057E0924B1B88002B0DD00121914B1960914B1B681B19D2B21A7001348C4A1388013B138048E09B
:4009C00002228A4B1A6044E00121884B1960D2B2854B1A800022804B1A703AE0824B1B881B021A43834B1B889A422BD201217F4B1960814B1B889A4202D29B1A9BB200E0D9
:400A0000002379490B80072B03D80121724B197014E0082B09D16D490B68A020000203430B6000216B4B196008E068490B688020800103430B600821664B1960624B1A806C
:400A4000140006E00222694B1A6002E0002001F067FE0422694B1A6035E05C4B1B689B0431D5B3070DD5664B1B681F211940574A1068574B03401360012014E00821012061
:400A800011E0594B1988083989B219800829F5D8002008E0564B1B681B19524A1268D2B21A70013401390029F4D1002808D1474A1368802109020B4313600022454B1A6066
:400AC0000C224E4B1A60B3074BD5EB0615D50023404A13603B4A13603B4B1B889C4201D1022300E00A232B40354A11780B4320218B4313700222384B1A706B062FD5304A6A
:400B0000117820230B43DBB213702F4B1B881C003C4A1268D20612D5364A1288D31A324A1380394B1A68802149020A431A601968364A0A401A601022224B1A6002E00422DE
:400B4000244B1A600122324B1A603249194B196031490868102303430B60244B1A60154B1D60154B1B685B071CD51F4B1B88002B0CD01F4B1B681B191B78DBB2274A136017
:400B80000134194A1388013B138002E0FF22234B1A60234B1B681F221340082BE5D10F3A204B1A60024B1C8070BDC04640010020C6010020400F0940000E09400000094010
:400BC000CC010020880F0940C401002060000940FF5FFFFFC80F0940C8010020880E0940CC0F094040030940440100206C000940D0010020D4010020CA010020C00F0940A3
:400C0000080309406400094004020940FFFFFEFF800E0940FF0F0000480F09404002094008020940800F094004490A68D2B210239A430001184010430860704700030440C9
:400C400010B5084B1B78002B06D100F069FA00F0D5FA0122034B1A7000F052F800F0D0FD10BDC0464601002070B5FFF7E9FF051E02D100F00BFD0500002D02D100F03AFC6D
:400C80000500002D02D00BE0013C00E0074C00F0F3FB002801D0002CF6D1002C00D1102500F04AFB00F0FEFA280070BD404B4C0070B50500032801D8002400E00124002C0D
:400CC0000AD16B0904339B000B4A9B581F222A40D340DB0700D41134002C0BD134266E43064BF618300000F067F804003100280000F0D8F9200070BDD80100205C320000EF
:400D000070B5002309E023491A1D92008818002444600120404250500133002BF3D01E4C042332E06668A27E2B000C335B00002018495852052A0BD0062A1CD0012A22D1BB
:400D4000206900281FD0F179228B02F054FA1AE02369002B01D0F2791A7063686269120511D5012252425A829A820C490A00E06A01F0F8FB07E02069002804D0F179228BB3
:400D8000520002F038FA34342B005D1E002BC9D170BDC046D80100205C320000FFFF000030B50B884A889C1A0025CD800079844200DDCC8030BDC046F0B55F4680B484B0B3
:400DC0000600837E062B02D10122934601E000229346F568B46872680192029300270023039314E0029A2100280000F031FB029A2100019800F0AEFA039021000198FFF78F
:400E0000CFFF0A345B46002B00D002350137338B9F42E7D3039804B004BC9346F0BDC046F0B50A8B8D684F680B69012125E00C00044003D17E88BA79B21802E07A88BE79E4
:400E4000921BEE88B24201D3002200E00A00A24202D01E78013E1E70A24202D01C78002C07D188431043002A01D1FA7900E001221A7049000A3501336246541EA446002A10
:400E8000D5D1F0BDF0B54F464646C0B48B6899464D680A69098B490001232CE04946CE886988194C234203D1698A0A24A046C1441C00044003D1AF79B846414401E0AF7936
:400EC000C91BB14201D3002100E01900A14202D01678013E1670A14202D01478002C07D198430843002901D1E97900E00121117001325B0061464C1EA4460029CED10CBCC1
:400F000090469946F0BDC04655555555F0B55F4656464D464446F0B485B082460E000B8B8A684F6809698B46F16A8846F07E01210C008440013CA146347FA1400139814085
:400F40008C465146002903D17888B979401802E07888B979401A0024012109E0D388984201D3002300E00B001C430A3249002B005D1E002BF2D1634623420FD04B46234272
:400F80000CD05B461B78002B02D0013B5A4613705B461B78002B18D0544616E0FB795A46137073691B050DD501235B427B82BB824346002B08D03A490A00404601F0D2FA22
:400FC000002402E0002400E00024002C5FD073691B055CD5B3689A467A88BB79D31A9946F17E1A00504601F009FA051E02D1002001F096FB012D3CD1F27E0023716A0E20BC
:40100000684401F067FAF37E9A00D31858005044317F4A4601F0F2F9051E02D1002001F07FFB012D25D1327F0023B16A03A801F051FA4346002B15D07A8A194B9A4208D183
:4010400003AB1A880E236B441988404601F08AFA08E003AB00930E236B4400220021300001F08CFA0E236B441B887B8203AB1B88BB82012D0BD901235B427B82BB8243460D
:40108000002B04D006490A00404601F06BFA200005B03CBC90469946A246AB46F0BDC046FFFF000070B504008A7E03000C335B001A481D5A052A08D0062A0BD0012A0ED12D
:4010C0002800FFF7ADFE05000CE02800FFF71EFF050007E02800FFF7D5FE050002E0002001F01EFB23000C335B000C4AD55263091F2214401E3AA240002D07D104339B00C1
:401100000649CB1859689143596006E004339B000249CB1859680A435A6070BDD801002010B5124C922252000021200002F063F80F4B238090231B0163800E4BA3808423D2
:401140005B00238403222423FF33E254023A023BFF3BE25401320133FF33E254200024304C32054902F03EF810BDC046D8010020D8490000B80B00000C3200000123002047
:4011800006E0131D9B000449CB185B68184313005A1E002BF5D17047D801002003280BD81F23034001229A404009031D9B000348C3185868104000E000207047D80100208A
:4011C000032809D8342358430B4B50331818837E052B04D1002303E00123002000E00123002B05D143685A8A988A0004104301E0012040427047C0460C3200000023024A9D
:40120000D380024A13607047D801002060010020FF231940062903D083180021197102E08318002119715300195AC31859808218002313727047C04670B506000D000123AB
:4012400005E0220029003000FFF7E2FF23005C1E002BF6D170BDC04610B534235843064B1B188A00511848009A6894466044997EFFF7E2FF10BDC0465C32000070B5050006
:4012800034234343064AD3181B8B04E021002800FFF7E2FF23005C1E002BF7D170BDC0465C32000010B5042303E02000FFF7E6FF23005C1E002BF8D110BDC04630B50123E4
:4012C00007E0FF231340062B02D163005D5A1D5223005C1E002BF4D130BDC04670B50500342343430D4AD3181B8B13E034236B430A4AD318A200121951009A6894466144C0
:40130000DE6830009A7E062A01D160003018FFF7D5FF23005C1E002BE8D170BD5C32000010B5042303E02000FFF7D8FF23005C1E002BF8D110BDC04610B5FFF7F1FF10BDD7
:401340009840504380235B009A1A51434018000A7047C046F0B5474680B482B007000E00019201234EE06300985BF3185988884205D3431A321900251572012201E00B1AAA
:401380000022002A11D17D79AB420ED933191B7A3A7A934205D3220001993000FFF738FF2FE03219013313722BE03D79AB4204D97D79AB4225D8002A23D1FF23019A13402E
:4013C000062B0FD00902331998461B79194308230122FFF7B5FF020A6300F3185A80434618710EE00902331998461B79194308230122FFF7A5FF020A6300F3185A80434682
:40140000187123005C1E002BADD1002002B004BC9046F0BDF0B583B0050001911700012310E0FF233B40062B0BD17400019BE05A615B00234022FFF783FF80B26053019B00
:40144000E05233005E1E002BEBD103B0F0BDC04610B5FFF7DFFF10BD00230B7434335843044B1818837E043BDBB2012B01D800234B7470475C320000024BDB688020184034
:401480007047C046D801002010B50E4BDB68DB030DD403280DD8430904339B00094A9B581F220240D340DB0705D4012404E0112402E0012400E00024002C01D100F0CCFD91
:4014C000200010BDD801002010B5084BDB68DB0307D4074B1B78012B05D100F003FD002003E0112001E00120404210BDD80100206401002010B50F4BDB681B0618D4002485
:401500000120404211E02000FFF7BEFF00280BD1022C03D80122084B5A7002E00022064B5A70FFF7D1FF04E00134032CEBD900E0112010BDD801002064010020F0B5574668
:401540004E464546E0B4804601280BD0022804D000239A460633994607E005239A460023994602E000239A469946164C00251FE001F08BFB2268136821698B431360666885
:401580003268A77E0721B9408A434946B9400A433260227E514691400B4322681360A268136861698B43136001F073FB1C340135182DDDD9404600F00DFA1CBC904699464A
:4015C000A246F0BD4433000010B51B4A93780133DBB293709078C0B2FFF756FF041E09D1154B9B78032B02D10022134B5A70FFF76BFF1EE0104B9B78032B11D10F4B1A898E
:4016000001321A81DA6880218A43DA60DA681202120ADA60DA6804061443DC60002408E0064AD3681B021B0AD360D16803060B43D360002CC9D110BD64010020D801002087
:40164000074A084B1A6001380002074B1860054B1B68002BFBDB054A024B1A607047C04640000040000001400003014040FF008010B50300032801D8002000E001200028C7
:4016800003D15521180000F083FE10BD70B50024002504E02000FFF7EBFF05430134032CF8D9280070BDC04610B5002408E034236343054AD31859682000FFF7CDFE013481
:4016C000032CF4D910BDC0465C320000F0B55F4656464D464446F0B483B00190284C2368F0273B400093274D2B680221894619408846254E336838218B4619408A4601F08C
:40170000C4FA2368BB43236001F0C3FA01F0BDFA2B6849468B432B6001F0BBFA01F0B5FA336859468B4330221343336001F0B1FA6B46988801F01AF901F0A7FA3368594648
:401740008B4351460B43336001F0A3FA01F09DFA2B6849468B4341460B432B6001F099FA01F093FA2368BB43009A1343236001F090FA03B03CBC90469946A246AB46F0BD5E
:4017800000040240000404400804044070B505000E00140001F079FA2B685C4034405C402C6001F076FA70BD10B50022F0210448FFF7ECFF00F01EFC00F05AF910BDC046FD
:4017C0000004024010B504000C4B1B78834214D0012B01D1FFF7E8FF012C05D100F04EF90122064B1A7008E0022C06D0042C04D0032C02D00022014B1A7010BD64010020F9
:4018000010B5FFF751FF0020FFF798FE00212423FF33054AD1540020FFF7D4FF0120FFF7D1FF002010BDC046D8010020034A044B11680B400002184310607047980000208B
:40184000FFFCFFFF01390843014B18607047C04600020C4010B5104B1B68702293431C0022230E4AD15C0E4801F01AFB0D4B984204D820232343084A13600BE0084B98423A
:4018800004D830232343044A136003E040232343014A136010BDC04698000020D801002000366E01001BB700014A024B1A60704700008F01C0010C40F0B5474680B482B06F
:4018C000050034234343224AD3185A689C68138801279F40013F0A2902D908000A3800E000200A23984688444346642B01D9642398467843642101F0D3FA0600404678433C
:40190000642101F0CDFA020000270023019313E04B00185B864208D80B00824201D207E00123591E002BF3D104E00623019301E0062301930A34013734236B430449CB1834
:401940001B8B9F42ECD3019802B004BC9046F0BD5C320000F8B54468E57AAC4601237F27002616E063185A7A964200D21600974200D83A00837E043BDBB2012B07D8631828
:401980009B7A9E4200D21E009A4200D91A000B001700591E002BE5D16346002B12D0092F12D80B49EA008A1850686B1EDB00CB18596801F075FA46437E2E07D8013DE57278
:4019C000012004E0002002E0002000E00020F8BD00360000F0B54F464646C0B483B0012809D0022803D000270623994606E005270023994602E0002700239946184C002592
:401A000027E001F042F9019022681368E1688B43136060680268A17C884607214646B1408A434946B1400A430260227C390091400B4322681360A1680B68627C944601224B
:401A40006646B24093430B60019801F022F914340135002DD5D003B00CBC90469946F0BD3033000010B50220FFF7B4FF10BDC04610B50020FFF7AEFF10BDC046F8B54F4652
:401A80004646C0B43E4B2422FF329A5C91214900585C824208D0FFF751FD394B91225200995C2422FF329954FFF7DCFF0120FFF70DFEC0221203334B1A60334D2B68802228
:401AC0005205904613432B600024304B1C60304B1C60304B1C60304B1C60304F3C60304B1C60304B99461C602F4E34602F4B1C606022F0212E48FFF749FE002202212D48E9
:401B0000FFF744FE2C4B1A68802149010A431A6080214900294A1160882252021A604B461C602B68424613432B6080235B04244A1360EF39234A1160234A146001223A60EC
:401B40003360FFF7B1FE22230D4AD05CFFF778FD0020FFF76BFEFFF77DFE1C4B1B681C4A13431C4A13600F221B4B1A601B4B1C60053A1B4B1A600CBC90469946F8BDC04641
:401B8000D801002004020C40A8020C40F4000C40B4020C40C0020C4020030C4084010C4088020C4080020C4084020C4080010C40000402400004044094020C40A0020C40B3
:401BC000A4020C4088010C4090020C40980000200010008000000C4000030C40F0010C4010030C4070B50500C37ADB00124A9C5801F04BF8114B1A68114B1A40114B1B7878
:401C000034214B431049CB18D97E104B1B78DBB2994205D80E4B1B78ED18AB7A134304E00B4B1B78ED186B7A13432343034A136001F02FF870BDC04600360000C0010C40CE
:401C400080FF3FFC660100205C320000700100203036000010B5030001208840102900D11D38002B02D0190001F01AF9002800D1013010BD10B5164C2278164934235A4369
:401C80008A18506822785343CB18DA7E124B1B78DBB29A4201D8C18900E081890C4B1B78342253430B4AD318DA7E0B4B1B78DBB29A4201D8437C00E0037C1804053B012BBA
:401CC00002D880239B041843FFF7BCFD10BDC046660100205C3200007001002010B502000B4B1B7834214B430A49CB18D97E0A4B1B78DBB2994201D8C08900E08089118831
:401D0000127CFFF7A7FF0004000C044B186010BD660100205C3200007001002014030C4010B50D2000F0E8FC01222B4B1A6000232A490B602A490B602A490B6006202A499D
:401D40000860FA302949086029490A6083214900284A1160284A13600322284B1A60F02300E0013B234A1268520701D4002BF8D1002B02D10822214B1A60832252001D4BAF
:401D80001A600D2000F0C2FC0D2000F0ABFC80225202164B1A600023114A1360114A136094229201104B1A605022114B1A6001230A4A1360084A136002220F4B1A60F02359
:401DC00000E0013B0E4A1268520701D0002BF8D10C4A0A4B1A6010BD80010C408C010C40B0020C40B4020C4088020C4080020C40F0010C40F0000C40F8000C4040030C404F
:401E000000000C400103000010B50B4B1B78342253430A4AD3185868FFF760FFFFF72AFF074AD36807490B43D3600A2000F09EFDFFF776FF10BDC046660100205C320000E0
:401E4000D80100208000010070B50400857E067E00F01BFF23681B680F22B24093431A000423B3401343666832680721A9408A4332602268136000F00CFF70BD70B5154C1A
:401E80003422130043431D59CA00521A90002818114A1060E3185B695B0717D5890069180E4B19608D780A88D3009B1A9A000C4BD318094A1360084C2068FFF7C5FF236821
:401EC0001C332360013D002DF5D101E0FFF7BCFF70BDC0465C320000000300206801002044330000F8B5234B1B7834225343224AD3185F68214B2422FF329A5C91214900DD
:401F0000585C824208D0FFF719FB1C4B91225200995C2422FF329954194900230B70154E3378154C34256B43E31898680B78DBB29A00D3185A008218124B1A603800FFF783
:401F400051FE33786B43E3185B695B0703D50E4800F08AFB02E00D4800F086FB054B1878C0B2074B1978C9B2FFF788FFFFF74CFFF8BDC046660100205C320000D801002016
:401F800070010020FC0200201D2E0000D92D0000F8B50400067E857E00F077FE636819680723AB40994327683B680F22B24093433B602422FF320E4FBA5C002A05D106236E
:401FC000AB4019436368196008E0022A06D10332B24013436268116022681360A1680B68647E0122A24093430B6000F052FEF8BDD801002070B5134B1B78012B21D1124B93
:402000001B685B695B0715D5104B1B689D781A88D3009B1A9A000E4BD3180E4A13600D4C2068FFF7B5FF23681C332360013D002DF5D103E0074B1868FFF7AAFF0022014B6C
:402040001A7070BD710100206C010020680100204433000000030020F8B5104E34273B004343F3185D68C0B20D4C20700120FFF7A9FBFFF7BFFF23787B439A59094B1A608C
:40208000094BDA687F218A43DA602178DA680A43DA602800FFF722FEF8BDC0465C3200006601002000030020D8010020F0B5574680B482B01A4E342504006C433419636823
:4020C0009A4600916B461B78164F3B703B78DBB29A00D3185A00A3689C466244124B1A600190FFF7B9FF5046FFF77CFD0F4B1C6000990198FFF7C2FE0D4B1B786B439A5904
:402100003B789B00D3180B4A136001220A4B1A700A4800F0A9FA02B004BC9246F0BDC0465C32000070010020FC0200206C010020660100206801002071010020AD2D000074
:40214000F0B55F4656464D464446F0B485B0019034224243714B9A1853689A461D000935012305E0002303A8835402A8835413005A1E002BF6D153461A8801239340013B99
:4021800059430800642100F08BFE07003423019A5343624AD3189B7E043BDBB2012B02D90023994601E00123994603AB9B46002676E03423019A5343584AD318DB7E9E422C
:4021C00006D14B46002B03D055460A3502AB9B463423019A5343514AD3189968B3009B195A0088469044012302E04023AB5413005A1E002BF9D1402431000198FFF756FF3E
:402200000120FFF763FAFFF7FFFD454B00E0013B444AD26812060ED5002BF8D101330BE0530041465B5A9F4203D9A9180B78A3430B70130000E001235A1E002BF0D16408DE
:4022400001330BE0A9180B782343DBB20B70002C03D1002B01D101330B7013005A1E002BF0D1002CC8D1013307E05B469B181878A95C884200D2197013005A1E002BF4D101
:4022800031000198FFF712FFFFF7BEFD244B00E0013B244AD268120601D5002BF8D101363423019A53431D4AD3181B8B9E4200D27FE7012327E003AB1B5D524612195372DF
:4022C0004A46002A1ED002AA105D524612199072524691894B43D2895043834208D200F0DFFD7F2800D97F2053461B19587209E01100180000F0D4FD7F2800D97F2053467E
:402300001B19987223005C1E002BD4D105B03CBC90469946A246AB46F0BDC0465C32000000A60E00D801002070B5154C3422130043431D59CA00521A90002818114A10600D
:40234000E3185B695B0717D5890069180E4B19608D780A88D3009B1A9A000C4BD318094A1360084C2068FFF713FE23681C332360013D002DF5D101E0FFF70AFE70BDC04630
:402380005C32000000030020680100204433000070B504000D0034264643154BF618154BDB68DB0320D473680422DA7229002000FFF7C6FE3000FFF7CDFA0028F6D1200024
:4023C000FFF74AFEFFF78EFD0B4B00E0013B094AD268120601D5002BF8D1002B06D029002000FFF769FA02E0112000E0102070BD5C320000D801002000366E01F0B5002455
:40240000334B1C700400002600230BE0E588954206D9AE4204D22E4E3371012737702E000A3401338B42F1D3294B1B78002B46D14AE0274FBB181B799E00F61874000519C3
:40244000ED88AC465600B61875007D1966466E81002B12D18D006D186C000A3C0419E6885500AD186C003C19268101339D00EB185D004519EB88A3811FE04D1EEDB2AB4230
:402480000BD10A3C0419E5885400A4186300104CE3181D81C4889C810FE00A3C0419E6885500AD186C000A4D2C19268101339D00EB185D004519EB88A381013200E00022BB
:4024C000034B1B789A42B4D3014B1878F0BDC04674010020F0B557464646C0B483B082460F000192984600252DE01B4B5B191C79002C07D16A0052195300174AD31800227C
:402500001A810AE0019B013B9C4206D16A0052195300114AD31800229A816E00721953000D4AD3189A891989501A5B89C9185118784300F03FFD7C43444400197F30000AF3
:40254000534698530135044B18788542CDD303B00CBC90469A46F0BD74010020002800D00180704770B504001500002805D0FFF7F5FFA01C2900FFF7F1FF70BDF0B55F4651
:4025800056464546E0B404001D001F88089B1E88C36A92009046984489009A468A444369DB0616D54346198830239B46C25C00233800FEF7C5FE87B253461F8043465988C5
:4025C0005B46E25C00233000FEF7BAFE86B253465E802F80089B1E801CBC90469A46A346F0BDC046044B1B68002BFBDB0002034B1843014B18607047000001404100008038
:40260000034B1B68002BFBDB024A014B1A6070470000014041000040014B58677047C0460000002010B5040000F02FFB044A1168044B0B40A4031C43146000F02AFB10BDB5
:402640000CE400E0FF3FFFFF80229201014B1A607047C04600E100E080229201014B1A607047C04680E100E010B50400FFF7F4FF2000FFF7D1FF0320FFF7D4FFFFF7E4FF7F
:4026800010BDC0460C4B1B689B001C22134018330A4A1268920803210A40D34008490868084A02400A60084A944663441B78DBB2064A13607047C046080F03402800034016
:4026C00000000740FFFFFFBFCDF1FF0F0C0F0340034B18688023DB05184000D001207047000007401F2318401E3B8340014A13607047C04600E100E01F2318401E3B83406D
:40270000014A13607047C04680E100E01F2318401E3B8340014A13607047C04680E200E001BE704770B504000D00132802D90020FFF7F6FF1034A40080239B059C466444E8
:402740002068256070BDC04670B504000E00032902D90020FFF7E4FF132C02D90020FFF7DFFF03252540ED00063500F08EFAA408A400074B9C46644421680323AB40994305
:402780000B003100A9401943216000F082FA70BD00E400E010B5040006E0084B586800F06BFA074B9C46644480231B029C42F4D8024B9868604300F05FFA10BD9C0000209B
:4027C0000080FFFF70B582B000F0E6F900284DD000F05BFA0500264B1A6892001C231A401832244B1B689B0803210B40DA400021214B1960214C2168214B0B4021494A4376
:402800008021C9018C466244D20B013A5205520D1343A0225203134323601B4B1B680193302000F013FB194A13688021C9050B4313602668164B1E40002407E00120FFF759
:40284000A9FF1034A30533430C4A1360EE2CF5D90120FFF79FFFFF239B051E43074B1E60019A094B1A60280000F013FA02B070BD080F0340280003400C0F03400800074016
:4028800000F800C040420F003000104000000740FFFF3FC0F0B583B0040018280BD01C2809D0202807D0242805D0282803D02C2801D0302849D100F0E8F90190FFF708FF9E
:4028C000002803D0FFF7DEFE012600E00026214A136807218B4313601F4BE3181B78DBB21E4A13601E4A13688B4313601D4803687F22934319001C4BE3181B7813400B4315
:402900000360322000F0B8F9182C16D9114F3B680725AB431A0023001C3B9B082B4013433B60322000F0A8F93A68AA432300183B9B082C001C4014433C60012E01D1FFF761
:4029400041FF019800F0A5F902E00020FFF7E8FE03B0F0BD080F0340CDF1FF0F0C0F0340100F0340180F0340B4F1FF0F10B5034B1B7B584300F080F910BDC0469C00002073
:4029800010B500F082F9044A136804218B43136030BF00F07EF910BD10ED00E010B500F074F90400174B1B685B000CD516480168164B1940164B1A68131D9B05FF22920585
:4029C00013400B430360134B1B889BB2124A1360124A116804230B43136030BF094B1B685B000AD52320FFF7C1FF074A1168074B0B40FF2189050B431360200000F049F9D8
:402A000010BDC0460000074008000740FFFF3FC00C0F034052F1FF0F0400034010ED00E0024B1868800F80077047C0460C020740074A1168074B0B40802149000B43136056
:402A4000054A1168054B0B4005490B431360704734000340FFF0FFFF18000340F0F0FFFF08090000054A1168054B0B401360054A1168054B0B4013607047C046340003409F
:402A8000FFF0FFFF180003400F0F000070B50C00334B1A68334B134080225200934250D1314B1A68314B9A424DD1314B98424CD863284CD900294CD02E4B1B68002B36D0B4
:402AC0002D4B1B68002B46DA2C4B1B68002B44D0642568432A4BC5182A49280000F0E0F90600294B984211D9244B1868274B19684843890A00F0D4F9282100F0D1F9060069
:402B00002349280000F0CCF970430BE01B4B18681E4B19684843890A00F0C2F970431D4900F0BEF920600020124B186016E0174B1B689B0A104A136001220E4B1A60072076
:402B40000CE011200AE0112008E0112006E0112004E0112002E0072000E0112070BDC046340003400F0F0000180003400809000080841E00840100201C0003402000034001
:402B800071020000C409000060D10000AC000020A0252600409C0000034B1B68002B01DA012000E00020704700000740014A024B1A6070476588EDAC380003400004000C41
:402BC000034A13681B0C1B04184310607047C04640000340024B18680004000C7047C04640000340014B18687047C0463C000340024A116801230B431360704744000340AF
:402C0000024A116801230B43136070474C00034010B50400FFF704FFA0421AD0144A136803218B431360134B1B689B0F01D17C2001E086204000FFF799FE00F026F80D4A26
:402C400013689B009B08A40FA4071C43146000F020F8074B1B6803229343064A1268920F01D1023200E001221343014A136010BD140207400C0207400230800803D00130CD
:402C80000238FCD1C046C0467047EFF3108072B6704780F310887047104B1B78342253430F4AD3185B680F4A11680A04120C188801238340013B9A4206D20B4B1A680B4BB3
:402CC0001B785B00D15205E0074A1168074A127852008B520022064B1A607047660100205C320000D0000C40FC0200203036000088020C4070B526480278264934235A436B
:402D00008A18546802785343CB181A7E013A224B1B78DBB29A4223D91F4D2B780133DBB22B700600037834225343CB1899682B78DBB29A00D3185A008A18184B1A60FEF7CB
:402D400099FF2000FEF7CAFF2000FEF74BFF3078C0B22978C9B2FFF791F8FEF7E1FF16E000220D4B1A700E4AD1680E4B0B40D3600D4B1B78012B02D1FEF726FC07E0084B57
:402D8000DA6880218A43DA601A8901321A8170BD660100205C32000070010020FC020020D8010020FFFFFEFF6501002010B583225200064B1A60FFF76FFF054B1A8901323C
:402DC0001A81D968034A0A40DA6010BDF0000C40D80100207FFFFEFF10B50C4B1B78342253430B4A9C580B4B1A78D2B2D1008A1A9300E41883225200074B1A60FFF74CFF51
:402E00002000FFF7C5F8FFF775FF10BD660100205C32000070010020F0000C4010B583225200074B1A60FFF737FF064B1878C0B2054B1978C9B2FFF777FAFFF75BFF10BDBF
:402E4000F0000C40660100207001002070B50400FFF71BFF0500102C05D8104A136803218B43136016E0202C07D80C490B6803229343023A13430B600CE0302C07D8074915
:402E80000B6803229343013A13430B6002E00020FFF746FC2800FFF7FCFE70BD30001040002243088B4274D303098B425FD3030A8B4244D3030B8B4228D3030C8B420DD39A
:402EC000FF22090212BA030C8B4202D31212090265D0030B8B4219D300E0090AC30B8B4201D3CB03C01A5241830B8B4201D38B03C01A5241430B8B4201D34B03C01A52418D
:402F0000030B8B4201D30B03C01A5241C30A8B4201D3CB02C01A5241830A8B4201D38B02C01A5241430A8B4201D34B02C01A5241030A8B4201D30B02C01A5241CDD2C3095C
:402F40008B4201D3CB01C01A524183098B4201D38B01C01A524143098B4201D34B01C01A524103098B4201D30B01C01A5241C3088B4201D3CB00C01A524183088B4201D3B5
:402F80008B00C01A524143088B4201D34B00C01A5241411A00D20146524110467047FFE701B5002000F0F0F802BDC0460029F7D076E7704703460B437FD4002243088B42E0
:402FC00074D303098B425FD3030A8B4244D3030B8B4228D3030C8B420DD3FF22090212BA030C8B4202D31212090265D0030B8B4219D300E0090AC30B8B4201D3CB03C01A1E
:403000005241830B8B4201D38B03C01A5241430B8B4201D34B03C01A5241030B8B4201D30B03C01A5241C30A8B4201D3CB02C01A5241830A8B4201D38B02C01A5241430AE2
:403040008B4201D34B02C01A5241030A8B4201D30B02C01A5241CDD2C3098B4201D3CB01C01A524183098B4201D38B01C01A524143098B4201D34B01C01A524103098B42E3
:4030800001D30B01C01A5241C3088B4201D3CB00C01A524183088B4201D38B00C01A524143088B4201D34B00C01A5241411A00D201465241104670475DE0CA0F00D04942D2
:4030C000031000D34042534000229C4603098B422DD3030A8B4212D3FC22890112BA030A8B420CD3890192118B4208D3890192118B4204D389013AD0921100E08909C309F1
:403100008B4201D3CB01C01A524183098B4201D38B01C01A524143098B4201D34B01C01A524103098B4201D30B01C01A5241C3088B4201D3CB00C01A524183088B4201D3F3
:403140008B00C01A5241D9D243088B4201D34B00C01A5241411A00D20146634652415B10104601D34042002B00D54942704763465B1000D3404201B5002000F005F802BD14
:403180000029F8D016E770477047C046014B18687047C046100100200E4B70B500251E000D4CE41AA410A54204D0AB00F35898470135F8E700F03EFA084B00251E00084C70
:4031C000E41AA410A54204D0AB00F35898470135F8E770BD40360000403600004036000048360000002310B59A4203D0CC5CC4540133F9E710BD03008218934202D01970E6
:403200000133FAE770470000000000000E00C800969619011E202004080008000000FFFFFFFF0C00780064640F031E2020040800080000000C00A0008B8B14031E2020042D
:403240000800080000000E00500028280A011E202004100008000000C800000044330000FC0100204A020020000000005C010020192800000E00050707008C008C0000004C
:4032800055170000551700004801002080000000CC34000012020020D602002000000000580100200928000001000101000000000000000000000000000000000000000074
:4032C00000000000E834000024020020E0020020000000005401002009280000010001010000000000000000000000000000000000000000000000002C330000360200200A
:40330000EA0200204C010020500100200528000001000601000000000000000000000000000000000000000000000000100009010003024008030440000304400000F00089
:4033400014050F0000010240080104400001044004010440000000F0800000001C071500000202400802044000020440040204400F000000010000000000000000020240E9
:40338000080204400002044004020440F0000000020000000401030000020240080204400002044004020440000F0000040000000802060000020240080204400002044018
:4033C0000402044000F00000080000000C0309000000024008000440000004400400044000F00000080000000C030900000002400800044000000440040004400000000F20
:403400004000000018061200000002400800044000000440040004400F0000000100000000000000000102400801044000010440040104400000F0002000000014050F009C
:40344000000102400801044000010440040104400F000000010000000000000000010240080104400001044004010440F00000000200000004010300000102400801044076
:403480000001044004010440000F000004000000080206000001024008010440000104400401044000F00000080000000C030900000102400801044000010440040104400F
:4034C00000000F001000000010040C0000000240080004400000044004000440F0000000020000000401030000000240080004400000044004000440000F0000040000004C
:403500000802060000010240080104400001044004010440000000F0800000001C071500000202400802044000020440040204400F0000000100000000000000000202403F
:40354000080204400002044004020440F0000000020000000401030000020240080204400002044004020440000F0000040000000802060000020240080204400002044056
:403580000402044000F00000080000000C0309000000024008000440000004400400044000F00000080000000C030900000002400800044000000440040004400000000F5E
:4035C000400000001806120000000240080004400000044004000440F0000000020000000401030000000240080004400000044004000440000F000004000000080206000A
:40360000000000017C92000000000003F824010000004001E093040000004003C027090000008001009F240000008003003E490000430000F8B5C046F8BC08BC9E46704719
:4036400041010000F9060000F8B5C046F8BC08BC9E46704719010000683600009000002088000000F0010000000000002003000020000004010000000000E02EC05D0000EF
:403680001800000000366E010000000000000000000000000000000000000000000000000000000000000000313600000000000000000000000000000000000000000000E6
:4036C00000000000000000000000000000000000000000000000000000000000000000000000000000000000B00000200000000000000000000000000000000000000000FA
:403700000000000000000000000000000000000000000000000000000000000000000000000000000000000000000000000000000000000000000000000000000000000089
:403740000000000000000000000000000000000000000000000000000000000000000000000000000000000000000000000000000000000000000000000000000000000049
:403780000000000000000000000000000000000000000000000000000000000000000000000000000000000000000000000000000000000000000000000000000000000009
:4037C00000000000000000000000000000000000000000000000000000000000000000000000000000000000000000000000000000000000000000000000000000000000C9
:0200000490303A
:02000000D07FAF
:0200000490402A
:4000000000000000000000000000000000000000000000000000000000000000000000000000000000000000000000000000000000000000000000000000000000000000C0
:0200000490501A
:0C00000000021B0111AB00001B11E22AE2
:0200000490600A
:0100000001FE
:00000001FF